:100000000C9446000C9465000C9465000C946500FB
:100010000C9465000C9465000C9465000C946500CC
:100020000C9465000C9465000C9465000C946500BC
:100030000C9465000C94DE000C9465000C94650033
:100040000C9465000C9465000C9465000C9465009C
:100050000C9465000C9465000C9465000C9465008C
:100060000C9465000C9465000C9465000C9465007C
:100070000C9465000C9465000C9465000C9465006C
:100080000C9465000C9465000C94650011241FBE4F
:10009000CFEFD0E4DEBFCDBF11E0A0E0B1E0E2E9F8
:1000A000F7E000E00BBF02C007900D92A431B1074A
:1000B000D9F721E0A4E1B1E001C01D92AC32B20752
:1000C000E1F70E9441030C94C7030C940000CF9306
:1000D000DF9300D01F92CDB7DEB789837B836A831D
:1000E00089818A3031F48A819B81BC018DE00E9434
:1000F000670080EC90E0FC018081882F90E08072A6
:100100009927892BB1F386EC90E02981FC012083AB
:1001100080E090E00F900F900F90DF91CF910895C5
:10012000CF93DF93CDB7DEB781E890E02BE0FC0101
:10013000208388E890E02DE730E0FC0131832083C4
:100140008FE690E022E0FC01208384E890E0FC014F
:100150001182108280910E0190910F01A0911001E7
:10016000B09111018093150190931601A09317018E
:10017000B09318018FE590E02FE530E0F901208180
:100180002068FC0120830000DF91CF910895CF9378
:10019000DF93CDB7DEB781E890E0FC01108200006C
:1001A000DF91CF910895CF93DF93CDB7DEB781E094
:1001B000809314010000DF91CF9108951F920F9258
:1001C00000905F000F92112400905B000F922F931C
:1001D0003F934F935F936F937F938F939F93AF93CF
:1001E000BF93EF93FF93CF93DF93CDB7DEB78091AB
:1001F000150190911601A0911701B0911801019776
:10020000A109B1098093150190931601A0931701DC
:10021000B09318018091150190911601A0911701DA
:10022000B0911801892B8A2B8B2B91F40E94D3005B
:1002300080910E0190910F01A0911001B0911101D8
:100240008093150190931601A0931701B0931801A4
:100250000000DF91CF91FF91EF91BF91AF919F91FE
:100260008F917F916F915F914F913F912F910F905F
:1002700000925B000F9000925F000F901F90189506
:10028000CF93DF9300D000D0CDB7DEB769837A83F8
:100290008B839C8389819A81AB81BC8180930E0181
:1002A00090930F01A0931001B093110180910E0162
:1002B00090910F01A0911001B0911101809315014F
:1002C00090931601A0931701B093180100000F90AE
:1002D0000F900F900F90DF91CF910895CF93DF9300
:1002E000CDB7DEB780912101909122018130910537
:1002F00081F08130910530F082309105F9F003975B
:1003000091F146C081E090E0909322018093210119
:100310003FC080911D0190911E018C32914038F0B8
:1003200082E090E0909322018093210131C081E02E
:1003300090E090932201809321012AC080911D01B9
:1003400090911E018C32914038F083E090E09093C0
:100350002201809321011CC082E090E09093220151
:100360008093210115C080911D0190911E018C3256
:10037000914038F081E090E0909322018093210138
:1003800006C083E090E09093220180932101000059
:1003900080912101909122018230910551F08330AA
:1003A000910559F0019709F00CC081E08093190183
:1003B00008C082E08093190104C084E08093190191
:1003C00000000000DF91CF910895CF93DF93CDB768
:1003D000DEB780912A0190912B018130910569F05F
:1003E0008130910518F00297E9F031C081E090E08A
:1003F00090932B0180932A012AC080911B01909138
:100400001C01883E934038F082E090E090932B01ED
:1004100080932A011CC081E090E090932B0180938F
:100420002A0115C080911B0190911C01883E9340C8
:1004300038F081E090E090932B0180932A0106C070
:1004400082E090E090932B0180932A01000080913C
:100450002A0190912B018130910519F0029729F022
:1004600007C088E080931A0103C010921A010000AF
:100470000000DF91CF910895CF93DF93CDB7DEB722
:10048000809126019091270181309105D1F1813031
:10049000910520F0029709F444C054C080912501D1
:1004A000813081F481E090E09093270180932601D0
:1004B0008091120190911301019690931301809302
:1004C00012013FC0809125018230B1F482E090E0BA
:1004D000909327018093260180911201909113013E
:1004E000029778F1809112019091130101979093F6
:1004F00013018093120125C010922701109226014A
:1005000020C080912501882329F4109227011092A0
:10051000260118C081E090E0909327018093260186
:1005200011C080912501882329F41092270110928F
:10053000260108C082E090E0909327018093260175
:1005400001C0000000000000DF91CF910895CF931B
:10055000DF93CDB7DEB780912801909129018130DA
:100560009105B1F08130910518F0029799F154C0CE
:1005700080912501843039F481E090E09093290145
:100580008093280149C0109229011092280144C08B
:1005900080912501882329F41092290110922801C5
:1005A0003BC080911F01282F30E080911201909173
:1005B00013012817390738F082E090E09093290161
:1005C0008093280129C081E090E0909329018093D5
:1005D000280122C080912501882329F41092290145
:1005E0001092280118C080911F01282F30E08091BF
:1005F0001201909113012817390738F081E090E03B
:10060000909329018093280106C082E090E09093A6
:1006100029018093280100008091280190912901EF
:100620008130910549F08130910518F0029709F069
:1006300007C01092200104C080E1809320010000D7
:100640000000DF91CF910895CF93DF93CDB7DEB750
:1006500000008091230190912401892B09F00DC0A5
:1006600085E290E030911A0120911901322B2091FE
:100670002001232BFC01208300000000DF91CF919B
:100680000895CF93DF93CDB7DEB781E290E0FC0110
:10069000108282E290E02FEFFC01208384E290E060
:1006A0002FEFFC01208385E290E029E0FC0120830C
:1006B00061E070E080E090E00E9440010E949000C4
:1006C000109222011092210110922B0110922A0106
:1006D00010922401109223011092290110922801F6
:1006E000109227011092260180E290E0FC018081A7
:1006F0008095809325010E946E010E94E5010E9471
:1007000024030E94A7020E943C0280911F018F5F78
:1007100080931F0180911F01282F30E080911201EA
:10072000909113018217930710F410921F0180918A
:100730001D0190911E01019690931E0180931D0151
:1007400080911D0190911E018D32914020F01092F8
:100750001E0110921D0180911B0190911C010196B8
:1007600090931C0180931B0180911B0190911C01AF
:10077000893E934020F010921C0110921B01000052
:10078000809114018823E1F310921401ADCFF89405
:02079000FFCF99
:1007920000000002000000006700000000000100ED
:0407A2000000020051
:00000001FF
