:100000000C9446000C9465000C9465000C946500FB
:100010000C9465000C9465000C9465000C946500CC
:100020000C9465000C9465000C9465000C946500BC
:100030000C9465000C94DE000C9465000C94650033
:100040000C9465000C9465000C9465000C9465009C
:100050000C9465000C9465000C9465000C9465008C
:100060000C9465000C9465000C9465000C9465007C
:100070000C9465000C9465000C9465000C9465006C
:100080000C9465000C9465000C94650011241FBE4F
:10009000CFEFD0E4DEBFCDBF11E0A0E0B1E0E8E8F3
:1000A000F5E000E00BBF02C007900D92A231B1074E
:1000B000D9F721E0A2E1B1E001C01D92A132B2075F
:1000C000E1F70E9476020C94C2020C940000CF93D8
:1000D000DF9300D01F92CDB7DEB789837B836A831D
:1000E00089818A3031F48A819B81BC018DE00E9434
:1000F000670080EC90E0FC018081882F90E08072A6
:100100009927892BB1F386EC90E02981FC012083AB
:1001100080E090E00F900F900F90DF91CF910895C5
:10012000CF93DF93CDB7DEB781E890E02BE0FC0101
:10013000208388E890E02DE730E0FC0131832083C4
:100140008FE690E022E0FC01208384E890E0FC014F
:100150001182108280910E0190910F01A0911001E7
:10016000B09111018093130190931401A093150194
:10017000B09316018FE590E02FE530E0F901208182
:100180002068FC0120830000DF91CF910895CF9378
:10019000DF93CDB7DEB781E890E0FC01108200006C
:1001A000DF91CF910895CF93DF93CDB7DEB781E094
:1001B000809312010000DF91CF9108951F920F925A
:1001C00000905F000F92112400905B000F922F931C
:1001D0003F934F935F936F937F938F939F93AF93CF
:1001E000BF93EF93FF93CF93DF93CDB7DEB78091AB
:1001F000130190911401A0911501B091160101977E
:10020000A109B1098093130190931401A0931501E2
:10021000B09316018091130190911401A0911501E2
:10022000B0911601892B8A2B8B2B91F40E94D3005D
:1002300080910E0190910F01A0911001B0911101D8
:100240008093130190931401A0931501B0931601AC
:100250000000DF91CF91FF91EF91BF91AF919F91FE
:100260008F917F916F915F914F913F912F910F905F
:1002700000925B000F9000925F000F901F90189506
:10028000CF93DF9300D000D0CDB7DEB769837A83F8
:100290008B839C8389819A81AB81BC8180930E0181
:1002A00090930F01A0931001B093110180910E0162
:1002B00090910F01A0911001B09111018093130151
:1002C00090931401A0931501B093160100000F90B4
:1002D0000F900F900F90DF91CF910895CF93DF9300
:1002E000CDB7DEB780911B0190911C018130910543
:1002F00081F08130910530F082309105F9F003975B
:1003000091F146C081E090E090931C0180931B0125
:100310003FC08091190190911A01883E934038F0B6
:1003200082E090E090931C0180931B0131C081E03A
:1003300090E090931C0180931B012AC080911901C9
:1003400090911A01883E934038F083E090E09093BA
:100350001C0180931B011CC082E090E090931C0163
:1003600080931B0115C08091190190911A01883E5C
:10037000934038F081E090E090931C0180931B0142
:1003800006C083E090E090931C0180931B01000065
:1003900080911B0190911C018230910551F08330B6
:1003A000910559F0019709F00CC081E08093170185
:1003B00008C082E08093170104C084E08093170195
:1003C00000000000DF91CF910895CF93DF93CDB768
:1003D000DEB780911F01909120018130910569F075
:1003E0008130910518F00297E9F031C081E090E08A
:1003F0009093200180931F012AC080911901909150
:100400001A01883E934038F082E090E090932001FA
:1004100080931F011CC081E090E0909320018093A5
:100420001F0115C08091190190911A01883E9340D7
:1004300038F081E090E09093200180931F0106C086
:1004400082E090E09093200180931F010000809152
:100450001F01909120018130910519F0029729F038
:1004600007C080E88093180103C0109218010000B3
:100470000000DF91CF910895CF93DF93CDB7DEB722
:1004800080911D0190911E01009719F00197A1F034
:1004900018C08091190190911A01883E934038F05C
:1004A00081E090E090931E0180931D010AC010929C
:1004B0001E0110921D0105C010921E0110921D0117
:1004C000000080911D0190911E01019709F00AC062
:1004D00085E290E030911801209117012323FC015F
:1004E000208300000000DF91CF910895CF93DF9328
:1004F000CDB7DEB781E290E0FC01108282E290E0AD
:100500002FEFFC01208384E290E02FEFFC01208399
:1005100085E290E0FC01108261E070E080E090E014
:100520000E9440010E94900010921C0110921B0139
:100530001092200110921F0110921E0110921D01B5
:100540000E946E010E94E5010E943C028091190107
:1005500090911A01019690931A018093190180914C
:10056000190190911A01893E934020F010921A01CE
:10057000109219010000809112018823E1F310927A
:080580001201DECFF894FFCF59
:1005880000000002000000006700000000000100F9
:02059800000061
:00000001FF
